{
  "contractName": "CourseEvaluation",
  "abi": [
    {
      "inputs": [],
      "payable": false,
      "stateMutability": "nonpayable",
      "type": "constructor"
    },
    {
      "constant": true,
      "inputs": [],
      "name": "host",
      "outputs": [
        {
          "internalType": "address",
          "name": "",
          "type": "address"
        }
      ],
      "payable": false,
      "stateMutability": "view",
      "type": "function"
    },
    {
      "constant": true,
      "inputs": [],
      "name": "message",
      "outputs": [
        {
          "internalType": "string",
          "name": "",
          "type": "string"
        }
      ],
      "payable": false,
      "stateMutability": "view",
      "type": "function"
    },
    {
      "constant": true,
      "inputs": [],
      "name": "getTotalRating",
      "outputs": [
        {
          "internalType": "uint256",
          "name": "",
          "type": "uint256"
        }
      ],
      "payable": false,
      "stateMutability": "view",
      "type": "function"
    },
    {
      "constant": false,
      "inputs": [
        {
          "internalType": "uint256",
          "name": "amount",
          "type": "uint256"
        }
      ],
      "name": "host_reward",
      "outputs": [],
      "payable": true,
      "stateMutability": "payable",
      "type": "function"
    },
    {
      "constant": true,
      "inputs": [
        {
          "internalType": "uint256",
          "name": "questionID",
          "type": "uint256"
        }
      ],
      "name": "showQuestion",
      "outputs": [
        {
          "internalType": "string",
          "name": "",
          "type": "string"
        }
      ],
      "payable": false,
      "stateMutability": "view",
      "type": "function"
    },
    {
      "constant": false,
      "inputs": [
        {
          "internalType": "uint256",
          "name": "answerID",
          "type": "uint256"
        },
        {
          "internalType": "uint256",
          "name": "_answer",
          "type": "uint256"
        }
      ],
      "name": "setAnswer",
      "outputs": [],
      "payable": false,
      "stateMutability": "nonpayable",
      "type": "function"
    },
    {
      "constant": true,
      "inputs": [
        {
          "internalType": "uint256",
          "name": "answerID",
          "type": "uint256"
        }
      ],
      "name": "showAnswer",
      "outputs": [
        {
          "internalType": "uint256",
          "name": "",
          "type": "uint256"
        }
      ],
      "payable": false,
      "stateMutability": "view",
      "type": "function"
    },
    {
      "constant": false,
      "inputs": [
        {
          "internalType": "string",
          "name": "_comment",
          "type": "string"
        }
      ],
      "name": "setComment",
      "outputs": [],
      "payable": false,
      "stateMutability": "nonpayable",
      "type": "function"
    },
    {
      "constant": true,
      "inputs": [],
      "name": "showComment",
      "outputs": [
        {
          "internalType": "string",
          "name": "comment_",
          "type": "string"
        }
      ],
      "payable": false,
      "stateMutability": "view",
      "type": "function"
    }
  ],
  "bytecode": "0x60806040523480156200001157600080fd5b5033601c60006101000a81548173ffffffffffffffffffffffffffffffffffffffff021916908373ffffffffffffffffffffffffffffffffffffffff1602179055506040518060a00160405280607081526020016200240660709139600090805190602001906200008492919062000662565b506040518060400160405280602081526020017f312e20446965204c5620697374206b6c617220737472756b747572696572742e81525060019080519060200190620000d292919062000662565b50604051806060016040528060298152602001620024b960299139600290805190602001906200010492919062000662565b506040518060600160405280603e8152602001620022f8603e9139600390805190602001906200013692919062000662565b506040518060800160405280605581526020016200233660559139600490805190602001906200016892919062000662565b506040518060600160405280602e81526020016200238b602e9139600590805190602001906200019a92919062000662565b50604051806060016040528060288152602001620021a26028913960069080519060200190620001cc92919062000662565b50604051806080016040528060478152602001620025516047913960079080519060200190620001fe92919062000662565b506040518060800160405280604981526020016200259860499139600890805190602001906200023092919062000662565b506040518060600160405280602d815260200162002137602d9139600990805190602001906200026292919062000662565b506040518060600160405280603a81526020016200265a603a9139600a90805190602001906200029492919062000662565b506040518060600160405280603781526020016200226060379139600b9080519060200190620002c692919062000662565b506040518060600160405280603581526020016200269460359139600c9080519060200190620002f892919062000662565b50604051806080016040528060528152602001620020e560529139600d90805190602001906200032a92919062000662565b506040518060600160405280603e815260200162002164603e9139600e90805190602001906200035c92919062000662565b506040518060a0016040528060798152602001620025e160799139600f90805190602001906200038e92919062000662565b506040518060800160405280605e815260200162002087605e913960109080519060200190620003c092919062000662565b506040518060800160405280604d8152602001620023b9604d913960119080519060200190620003f292919062000662565b506040518060a00160405280606181526020016200229760619139601290805190602001906200042492919062000662565b506040518060800160405280604381526020016200247660439139601390805190602001906200045692919062000662565b506040518060a0016040528060718152602001620021ef60719139601490805190602001906200048892919062000662565b50604051806080016040528060448152602001620024e26044913960159080519060200190620004ba92919062000662565b506040518060a00160405280606381526020016200271b6063913960169080519060200190620004ec92919062000662565b50604051806080016040528060528152602001620026c960529139601790805190602001906200051e92919062000662565b506040518060400160405280601d81526020017f446965204c562077697264206d6974202e2e2e2062657765727465742e000000815250601890805190602001906200056c92919062000662565b50604051806060016040528060258152602001620021ca60259139601990805190602001906200059e92919062000662565b506040518060600160405280602b815260200162002526602b9139601a9080519060200190620005d092919062000662565b506019604051908082528060200260200182016040528015620006025781602001602082028038833980820191505090505b50601b90805190602001906200061a929190620006e9565b5060008090505b601b805490508110156200065b576003601b82815481106200063f57fe5b9060005260206000200181905550808060010191505062000621565b5062000763565b828054600181600116156101000203166002900490600052602060002090601f016020900481019282601f10620006a557805160ff1916838001178555620006d6565b82800160010185558215620006d6579182015b82811115620006d5578251825591602001919060010190620006b8565b5b509050620006e591906200073b565b5090565b82805482825590600052602060002090810192821562000728579160200282015b82811115620007275782518255916020019190600101906200070a565b5b5090506200073791906200073b565b5090565b6200076091905b808211156200075c57600081600090555060010162000742565b5090565b90565b61191480620007736000396000f3fe6080604052600436106100865760003560e01c8063be66b5a511610059578063be66b5a5146101c3578063caf76d4114610277578063e21f37ce146102bc578063e8742b551461034c578063f437bc591461041457610086565b80633686ecff1461008b57806346e0d030146100da57806347199735146101055780639bb8c28e14610195575b600080fd5b34801561009757600080fd5b506100c4600480360360208110156100ae57600080fd5b810190808035906020019092919050505061046b565b6040518082815260200191505060405180910390f35b3480156100e657600080fd5b506100ef61048f565b6040518082815260200191505060405180910390f35b34801561011157600080fd5b5061011a6104e9565b6040518080602001828103825283818151815260200191508051906020019080838360005b8381101561015a57808201518184015260208101905061013f565b50505050905090810190601f1680156101875780820380516001836020036101000a031916815260200191505b509250505060405180910390f35b6101c1600480360360208110156101ab57600080fd5b810190808035906020019092919050505061058e565b005b3480156101cf57600080fd5b506101fc600480360360208110156101e657600080fd5b81019080803590602001909291905050506105d8565b6040518080602001828103825283818151815260200191508051906020019080838360005b8381101561023c578082015181840152602081019050610221565b50505050905090810190601f1680156102695780820380516001836020036101000a031916815260200191505b509250505060405180910390f35b34801561028357600080fd5b506102ba6004803603604081101561029a57600080fd5b8101908080359060200190929190803590602001909291905050506116f9565b005b3480156102c857600080fd5b506102d161171c565b6040518080602001828103825283818151815260200191508051906020019080838360005b838110156103115780820151818401526020810190506102f6565b50505050905090810190601f16801561033e5780820380516001836020036101000a031916815260200191505b509250505060405180910390f35b34801561035857600080fd5b506104126004803603602081101561036f57600080fd5b810190808035906020019064010000000081111561038c57600080fd5b82018360208201111561039e57600080fd5b803590602001918460018302840111640100000000831117156103c057600080fd5b91908080601f016020809104026020016040519081016040528093929190818152602001838380828437600081840152601f19601f8201169050808301925050505050505091929192905050506117ba565b005b34801561042057600080fd5b506104296117d4565b604051808273ffffffffffffffffffffffffffffffffffffffff1673ffffffffffffffffffffffffffffffffffffffff16815260200191505060405180910390f35b6000601b600183038154811061047d57fe5b90600052602060002001549050919050565b60008060008090505b601b805490508110156104ce57601b81815481106104b257fe5b9060005260206000200154820191508080600101915050610498565b5060006019600a8302816104de57fe5b049050809250505090565b6060601a8054600181600116156101000203166002900480601f0160208091040260200160405190810160405280929190818152602001828054600181600116156101000203166002900480156105815780601f1061055657610100808354040283529160200191610581565b820191906000526020600020905b81548152906001019060200180831161056457829003601f168201915b5050505050905080905090565b3373ffffffffffffffffffffffffffffffffffffffff166108fc829081150290604051600060405180830381858888f193505050501580156105d4573d6000803e3d6000fd5b5050565b60606000821180156105eb575060198211155b610640576040517f08c379a00000000000000000000000000000000000000000000000000000000081526004018080602001828103825260408152602001806118a06040913960400191505060405180910390fd5b60018214156106eb5760018054600181600116156101000203166002900480601f0160208091040260200160405190810160405280929190818152602001828054600181600116156101000203166002900480156106df5780601f106106b4576101008083540402835291602001916106df565b820191906000526020600020905b8154815290600101906020018083116106c257829003601f168201915b505050505090506116f4565b60028214156107965760028054600181600116156101000203166002900480601f01602080910402602001604051908101604052809291908181526020018280546001816001161561010002031660029004801561078a5780601f1061075f5761010080835404028352916020019161078a565b820191906000526020600020905b81548152906001019060200180831161076d57829003601f168201915b505050505090506116f4565b60038214156108415760038054600181600116156101000203166002900480601f0160208091040260200160405190810160405280929190818152602001828054600181600116156101000203166002900480156108355780601f1061080a57610100808354040283529160200191610835565b820191906000526020600020905b81548152906001019060200180831161081857829003601f168201915b505050505090506116f4565b60048214156108ec5760048054600181600116156101000203166002900480601f0160208091040260200160405190810160405280929190818152602001828054600181600116156101000203166002900480156108e05780601f106108b5576101008083540402835291602001916108e0565b820191906000526020600020905b8154815290600101906020018083116108c357829003601f168201915b505050505090506116f4565b60058214156109975760058054600181600116156101000203166002900480601f01602080910402602001604051908101604052809291908181526020018280546001816001161561010002031660029004801561098b5780601f106109605761010080835404028352916020019161098b565b820191906000526020600020905b81548152906001019060200180831161096e57829003601f168201915b505050505090506116f4565b6006821415610a425760068054600181600116156101000203166002900480601f016020809104026020016040519081016040528092919081815260200182805460018160011615610100020316600290048015610a365780601f10610a0b57610100808354040283529160200191610a36565b820191906000526020600020905b815481529060010190602001808311610a1957829003601f168201915b505050505090506116f4565b6007821415610aed5760078054600181600116156101000203166002900480601f016020809104026020016040519081016040528092919081815260200182805460018160011615610100020316600290048015610ae15780601f10610ab657610100808354040283529160200191610ae1565b820191906000526020600020905b815481529060010190602001808311610ac457829003601f168201915b505050505090506116f4565b6008821415610b985760088054600181600116156101000203166002900480601f016020809104026020016040519081016040528092919081815260200182805460018160011615610100020316600290048015610b8c5780601f10610b6157610100808354040283529160200191610b8c565b820191906000526020600020905b815481529060010190602001808311610b6f57829003601f168201915b505050505090506116f4565b6009821415610c435760098054600181600116156101000203166002900480601f016020809104026020016040519081016040528092919081815260200182805460018160011615610100020316600290048015610c375780601f10610c0c57610100808354040283529160200191610c37565b820191906000526020600020905b815481529060010190602001808311610c1a57829003601f168201915b505050505090506116f4565b600a821415610cee57600a8054600181600116156101000203166002900480601f016020809104026020016040519081016040528092919081815260200182805460018160011615610100020316600290048015610ce25780601f10610cb757610100808354040283529160200191610ce2565b820191906000526020600020905b815481529060010190602001808311610cc557829003601f168201915b505050505090506116f4565b600b821415610d9957600b8054600181600116156101000203166002900480601f016020809104026020016040519081016040528092919081815260200182805460018160011615610100020316600290048015610d8d5780601f10610d6257610100808354040283529160200191610d8d565b820191906000526020600020905b815481529060010190602001808311610d7057829003601f168201915b505050505090506116f4565b600c821415610e4457600c8054600181600116156101000203166002900480601f016020809104026020016040519081016040528092919081815260200182805460018160011615610100020316600290048015610e385780601f10610e0d57610100808354040283529160200191610e38565b820191906000526020600020905b815481529060010190602001808311610e1b57829003601f168201915b505050505090506116f4565b600d821415610eef57600d8054600181600116156101000203166002900480601f016020809104026020016040519081016040528092919081815260200182805460018160011615610100020316600290048015610ee35780601f10610eb857610100808354040283529160200191610ee3565b820191906000526020600020905b815481529060010190602001808311610ec657829003601f168201915b505050505090506116f4565b600e821415610f9a57600e8054600181600116156101000203166002900480601f016020809104026020016040519081016040528092919081815260200182805460018160011615610100020316600290048015610f8e5780601f10610f6357610100808354040283529160200191610f8e565b820191906000526020600020905b815481529060010190602001808311610f7157829003601f168201915b505050505090506116f4565b600f82141561104557600f8054600181600116156101000203166002900480601f0160208091040260200160405190810160405280929190818152602001828054600181600116156101000203166002900480156110395780601f1061100e57610100808354040283529160200191611039565b820191906000526020600020905b81548152906001019060200180831161101c57829003601f168201915b505050505090506116f4565b60108214156110f05760108054600181600116156101000203166002900480601f0160208091040260200160405190810160405280929190818152602001828054600181600116156101000203166002900480156110e45780601f106110b9576101008083540402835291602001916110e4565b820191906000526020600020905b8154815290600101906020018083116110c757829003601f168201915b505050505090506116f4565b601182141561119b5760118054600181600116156101000203166002900480601f01602080910402602001604051908101604052809291908181526020018280546001816001161561010002031660029004801561118f5780601f106111645761010080835404028352916020019161118f565b820191906000526020600020905b81548152906001019060200180831161117257829003601f168201915b505050505090506116f4565b60128214156112465760128054600181600116156101000203166002900480601f01602080910402602001604051908101604052809291908181526020018280546001816001161561010002031660029004801561123a5780601f1061120f5761010080835404028352916020019161123a565b820191906000526020600020905b81548152906001019060200180831161121d57829003601f168201915b505050505090506116f4565b60138214156112f15760138054600181600116156101000203166002900480601f0160208091040260200160405190810160405280929190818152602001828054600181600116156101000203166002900480156112e55780601f106112ba576101008083540402835291602001916112e5565b820191906000526020600020905b8154815290600101906020018083116112c857829003601f168201915b505050505090506116f4565b601482141561139c5760148054600181600116156101000203166002900480601f0160208091040260200160405190810160405280929190818152602001828054600181600116156101000203166002900480156113905780601f1061136557610100808354040283529160200191611390565b820191906000526020600020905b81548152906001019060200180831161137357829003601f168201915b505050505090506116f4565b60158214156114475760158054600181600116156101000203166002900480601f01602080910402602001604051908101604052809291908181526020018280546001816001161561010002031660029004801561143b5780601f106114105761010080835404028352916020019161143b565b820191906000526020600020905b81548152906001019060200180831161141e57829003601f168201915b505050505090506116f4565b60168214156114f25760168054600181600116156101000203166002900480601f0160208091040260200160405190810160405280929190818152602001828054600181600116156101000203166002900480156114e65780601f106114bb576101008083540402835291602001916114e6565b820191906000526020600020905b8154815290600101906020018083116114c957829003601f168201915b505050505090506116f4565b601782141561159d5760178054600181600116156101000203166002900480601f0160208091040260200160405190810160405280929190818152602001828054600181600116156101000203166002900480156115915780601f1061156657610100808354040283529160200191611591565b820191906000526020600020905b81548152906001019060200180831161157457829003601f168201915b505050505090506116f4565b60188214156116485760188054600181600116156101000203166002900480601f01602080910402602001604051908101604052809291908181526020018280546001816001161561010002031660029004801561163c5780601f106116115761010080835404028352916020019161163c565b820191906000526020600020905b81548152906001019060200180831161161f57829003601f168201915b505050505090506116f4565b60198214156116f35760198054600181600116156101000203166002900480601f0160208091040260200160405190810160405280929190818152602001828054600181600116156101000203166002900480156116e75780601f106116bc576101008083540402835291602001916116e7565b820191906000526020600020905b8154815290600101906020018083116116ca57829003601f168201915b505050505090506116f4565b5b919050565b80601b600184038154811061170a57fe5b90600052602060002001819055505050565b60008054600181600116156101000203166002900480601f0160208091040260200160405190810160405280929190818152602001828054600181600116156101000203166002900480156117b25780601f10611787576101008083540402835291602001916117b2565b820191906000526020600020905b81548152906001019060200180831161179557829003601f168201915b505050505081565b80601a90805190602001906117d09291906117fa565b5050565b601c60009054906101000a900473ffffffffffffffffffffffffffffffffffffffff1681565b828054600181600116156101000203166002900490600052602060002090601f016020900481019282601f1061183b57805160ff1916838001178555611869565b82800160010185558215611869579182015b8281111561186857825182559160200191906001019061184d565b5b509050611876919061187a565b5090565b61189c91905b80821115611898576000816000905550600101611880565b5090565b9056fe546865204e756d62657220796f7520656e746572656420697320746f6f206c6f77206f7220746f6f20686967682c20706c656173652074727920616761696e21a265627a7a72315820a5cd975554a403d4732c4ea4157eae64eb503ac5a9f1096637e4ce30f2fad7d264736f6c634300051000324d65696e6520566f722d756e64204e616368626572656974756e67202870726f20576f63686529206265747275672e2e2e2028313a203c31682c20323a20312d33682c20333a20342d35682c20343a20362d37682c20353a206d6568722931332e20446f7a656e742f696e2069737420676567656ec3bc6265722046726167656e20756e6420416e726567756e67656e206465722053747564696572656e64656e2061756667657363686c6f7373656e392e20446f7a656e742f696e207370726963687420616b75737469736368207665727374c3a46e646c6963682e31342e20576573656e746c69636865205072c3bc66756e6773616e666f72646572756e67656e2077657264656e2068657261757367656172626569746574362e20446f7a656e742f696e206973742061756620646965204c5620766f7262657265697465742e5765697465726520416e6d65726b756e67656e20616e2064656e20446f7a656e742f696e2e446965204c562066696e646574206d696e64657374656e7320736569742064656d2032302e30342e3230323020726567656c6dc3a4c39f696e6720756e642070c3bc6e6b746c69636820696e206469676974616c6572204c656872652f5072c3a473656e7a6c656872652073746174742e31312e20446f7a656e742f696e206272696e677420c3bc62657273696368746c69636865205a7573616d6d656e66617373756e67656e2e49636820686162652064656e2053746f6666206d69742063612e202e2e2e205175656c6c656e20617566676561726265697465742e2028313a206b65696e652c20323a20312d332c20333a20342d352c20343a20362d372c20353a206d65687229332e20446965204c562077697264206475726368204f6e6c696e652d4c6568722d2f4c65726e6d6174657269616c69656e20756e7465727374c3bc7a742e342e2045732077657264656e2048696e776569736520617566204c697465726174757220756e6420616e64657265205175656c6c656e206d69742042657a75672061756620646965204c5620676567656e62656e2e352e20496e20646572204c562077657264656e205a7573616d6d656e68c3a46e6765207665726d697474656c742e44696573656e205a65697461756677616e642068616c7465206963682066c3bc722e2e2e2028313a207a7520676572696e672c20333a20616e67656d7373656e2c20353a207a7520686f6368294672616765626f67656e207a7520426577657274756e672064657220566f726c6573756e67656e2c20416e74776f72746dc3b6676c6963686b656974656e207a7769736368656e203120756e6420352c2031203d2053656872206775742c2035203d2053656872207363686c656368744963682068616265206175737265696368656e646520566f726b656e6e746e697373652066c3bc72206469657365204c562e2028313a206a612c20353a206e65696e29322e20446965204c65726e7a69656c6520646572204c562073696e64207472616e73706172656e742e446965204c562066696e64657420616c7320417564696f2d20627a772e20566964656f6b6f6e666572656e7a2073746174742e2028313a206a612c20353a206e65696e294b65696e6520416e6d65726b756e6720616e2064656e20446f7a656e742f696e20766f7268616e64656e2e372e20446f7a656e742f696e20766572676577697373657274207363682c206f622064657220626568616e64656c74652053746f66662076657273746164656e2077757264652e382e20446f7a656e742f696e20686174206d65696e20494e746572657373652066c3bc7220646173206e6568616e64656c74652053746f666667656269657420616e6765726567742e49636820686162652063612e202e2e2e2050726f7a656e7420646572204c5620286469676974616c206f64657220696e205072c3a473656e7a29207465696c67656e6f6d6d656e2e28313a3c32302520323a3231252d34302520333a3431252d36302520343a3631252d38302520353a3831252d313030252931302e20446f7a656e742f696e206b616e6e20617563682073636877696572696765205361636876657268616c74652065726b6cc3a472656e2e31322e20446f7a656e742f696e206973742061756368206175c39f657268616c6220646572204c5620616e7370726563686261722e44696520656d70666f686c656e65204c697465726174757220756e6420646965204d656469656e7175656c6c656e2073696e6420696e20646572204269626c696f7468656b20657268c3a46c746c6963682e44657220446f7a656e7420666f726465727420616b746976207a7572204e75747a756e6720696e746572616b7469766572204dc3b6676c6963686b656974656e20696e20646572204f6e6c696e65204c56206175662e2028436861742f4d696b726f29",
  "source": "pragma solidity >=0.4.21 <0.7.0;\r\n\r\ncontract CourseEvaluation\r\n{\r\n    string public message;\r\n    string private Question_1;\r\n    string private Question_2;\r\n    string private Question_3;\r\n    string private Question_4;\r\n    string private Question_5;\r\n    string private Question_6;\r\n    string private Question_7;\r\n    string private Question_8;\r\n    string private Question_9;\r\n    string private Question_10;\r\n    string private Question_11;\r\n    string private Question_12;\r\n    string private Question_13;\r\n    string private Question_14;\r\n    string private Question_15;\r\n    string private Question_16;\r\n    string private Question_17;\r\n    string private Question_18;\r\n    string private Question_19;\r\n    string private Question_20;\r\n    string private Question_21;\r\n    string private Question_22;\r\n    string private Question_23;\r\n    string private Question_24;\r\n    string private Question_25;\r\n    string private comment;\r\n    uint[] private answer_array;\r\n\r\n    constructor () public {\r\n        host = msg.sender;// store the address of the host\r\n        message = 'Fragebogen zu Bewertung der Vorlesungen, Antwortmglichkeiten zwischen 1 und 5, 1 = Sehr gut, 5 = Sehr schlecht';\r\n        Question_1 = '1. Die LV ist klar strukturiert.';\r\n        Question_2 = '2. Die Lernziele der LV sind transparent.';\r\n        Question_3 = '3. Die LV wird durch Online-Lehr-/Lernmaterialien unterstzt.';\r\n        Question_4 = '4. Es werden Hinweise auf Literatur und andere Quellen mit Bezug auf die LV gegenben.';\r\n        Question_5 = '5. In der LV werden Zusammenhnge vermittelt.';\r\n        Question_6 = '6. Dozent/in ist auf die LV vorbereitet.';\r\n        Question_7 = '7. Dozent/in vergewissert sch, ob der behandelte Stoff verstaden wurde.';\r\n        Question_8 = '8. Dozent/in hat mein INteresse fr das nehandelte Stoffgebiet angeregt.';\r\n        Question_9 = '9. Dozent/in spricht akustisch verstndlich.';\r\n        Question_10 = '10. Dozent/in kann auch schwierige Sachverhalte erklren.';\r\n        Question_11 = '11. Dozent/in bringt bersichtliche Zusammenfassungen.';\r\n        Question_12 = '12. Dozent/in ist auch auerhalb der LV ansprechbar.';\r\n        Question_13 = '13. Dozent/in ist gegenber Fragen und Anregungen der Studierenden aufgeschlossen';\r\n        Question_14 = '14. Wesentliche Prfungsanforderungen werden herausgearbeitet';\r\n        Question_15 = 'Ich habe ca. ... Prozent der LV (digital oder in Prsenz) teilgenommen.(1:<20% 2:21%-40% 3:41%-60% 4:61%-80% 5:81%-100%)';\r\n        Question_16 = 'Meine Vor-und Nachbereitung (pro Woche) betrug... (1: <1h, 2: 1-3h, 3: 4-5h, 4: 6-7h, 5: mehr)';\r\n        Question_17 = 'Diesen Zeitaufwand halte ich fr... (1: zu gering, 3: angemssen, 5: zu hoch)';\r\n        Question_18 = 'Ich habe den Stoff mit ca. ... Quellen aufgearbeitet. (1: keine, 2: 1-3, 3: 4-5, 4: 6-7, 5: mehr)';\r\n        Question_19 = 'Ich habe ausreichende Vorkenntnisse fr diese LV. (1: ja, 5: nein)';\r\n        Question_20 = 'Die LV findet mindestens seit dem 20.04.2020 regelming und pnktlich in digitaler Lehre/Prsenzlehre statt.';\r\n        Question_21 = 'Die LV findet als Audio- bzw. Videokonferenz statt. (1: ja, 5: nein)';\r\n        Question_22 = 'Der Dozent fordert aktiv zur Nutzung interaktiver Mglichkeiten in der Online LV auf. (Chat/Mikro)';\r\n        Question_23 = 'Die empfohlene Literatur und die Medienquellen sind in der Bibliothek erhltlich.';\r\n        Question_24 = 'Die LV wird mit ... bewertet.';\r\n        Question_25 = 'Weitere Anmerkungen an den Dozent/in.';\r\n        comment = 'Keine Anmerkung an den Dozent/in vorhanden.';\r\n        answer_array = new uint[](25);\r\n\r\n        for(uint i = 0; i < answer_array.length; i++){\r\n            answer_array[i] = 3;\r\n        }\r\n    }\r\n\r\n\r\n    address public host; // address of the host\r\n\r\n    modifier restricted()\r\n    {\r\n        require(msg.sender == host,\"Only Host ist allowed to do this operation\");\r\n        _;\r\n    }\r\n\r\n\r\n    function getTotalRating() public view returns (uint){\r\n        //Ein Teil der Antworten betrifft ja nicht den Dozenten direkt und wird daher nicht in der Bewertung wiedergepiegelt\r\n    {\r\n        uint totalvalue;\r\n\r\n        for(uint i = 0; i<answer_array.length; i++){\r\n            totalvalue += answer_array[i];\r\n        }\r\n\r\n            uint rating_ = totalvalue*10/25;\r\n            return rating_;\r\n    }\r\n}\r\n    function host_reward(uint amount) public payable {\r\n        msg.sender.transfer(amount);\r\n    }\r\n\r\n    function showQuestion(uint questionID) public view returns(string memory){\r\n        require(questionID > 0 && questionID <= 25, \"The Number you entered is too low or too high, please try again!\");\r\n            // Je nach ID werden hier die oben gesetzten Fragen angezeigt\r\n        if(questionID == 1){\r\n            return Question_1;\r\n        }else if(questionID == 2){\r\n            return Question_2;\r\n        }else if(questionID == 3){\r\n            return Question_3;\r\n        }else if(questionID == 4){\r\n            return Question_4;\r\n        }else if(questionID == 5){\r\n            return Question_5;\r\n        }else if(questionID == 6){\r\n            return Question_6;\r\n        }else if(questionID == 7){\r\n            return Question_7;\r\n        }else if(questionID == 8){\r\n            return Question_8;\r\n        }else if(questionID == 9){\r\n            return Question_9;\r\n        }else if(questionID == 10){\r\n            return Question_10;\r\n        }else if(questionID == 11){\r\n            return Question_11;\r\n        }else if(questionID == 12){\r\n            return Question_12;\r\n        }else if(questionID == 13){\r\n            return Question_13;\r\n        }else if(questionID == 14){\r\n            return Question_14;\r\n        }else if(questionID == 15){\r\n            return Question_15;\r\n        }else if(questionID == 16){\r\n            return Question_16;\r\n        }else if(questionID == 17){\r\n            return Question_17;\r\n        }else if(questionID == 18){\r\n            return Question_18;\r\n        }else if(questionID == 19){\r\n            return Question_19;\r\n        }else if(questionID == 20){\r\n            return Question_20;\r\n        }else if(questionID == 21){\r\n            return Question_21;\r\n        }else if(questionID == 22){\r\n            return Question_22;\r\n        }else if(questionID == 23){\r\n            return Question_23;\r\n        }else if(questionID == 24){\r\n            return Question_24;\r\n        }else if(questionID == 25){\r\n            return Question_25;\r\n        }\r\n    }\r\n\r\n    function setAnswer(uint answerID,uint _answer) public {\r\n        answer_array[answerID-1] = _answer;\r\n    }\r\n\r\n    function showAnswer(uint answerID) public view returns (uint) {\r\n        return answer_array[answerID-1];\r\n    }\r\n\r\n\r\n    function setComment(string memory _comment) public {\r\n        // Setzt den Comment fr falls man noch eine Anmerkung an den Dozenten hat\r\n        comment = _comment;\r\n    }\r\n\r\n    function showComment() public view returns(string memory comment_) {\r\n        // Zeigt die Anmerkung an den Dozenten\r\n        comment_ = comment;\r\n        return comment_;\r\n    }\r\n}",
  "sourcePath": "C:/Users/jojom/GanacheProject/BCProject4/contracts/CourseEvaluation.sol",
  "compiler": {
    "name": "solc",
    "version": "0.5.16+commit.9c3226ce.Emscripten.clang"
  },
  "schemaVersion": "3.2.3",
  "updatedAt": "2020-07-30T10:13:45.761Z",
  "networkType": "ethereum",
  "devdoc": {
    "methods": {}
  },
  "userdoc": {
    "methods": {}
  }
}